{
  "contractName": "FruitTracking",
  "abi": [
    {
      "inputs": [],
      "stateMutability": "nonpayable",
      "type": "constructor"
    },
    {
      "anonymous": false,
      "inputs": [
        {
          "indexed": false,
          "internalType": "string",
          "name": "message",
          "type": "string"
        },
        {
          "indexed": false,
          "internalType": "uint256",
          "name": "currentStatus",
          "type": "uint256"
        },
        {
          "indexed": false,
          "internalType": "enum FruitTracking.Status",
          "name": "newStatus",
          "type": "uint8"
        },
        {
          "indexed": false,
          "internalType": "enum FruitTracking.Role",
          "name": "userRole",
          "type": "uint8"
        },
        {
          "indexed": false,
          "internalType": "address",
          "name": "currentHandler",
          "type": "address"
        },
        {
          "indexed": false,
          "internalType": "enum FruitTracking.Role",
          "name": "currentRole",
          "type": "uint8"
        }
      ],
      "name": "DebugInfo",
      "type": "event"
    },
    {
      "anonymous": false,
      "inputs": [
        {
          "indexed": false,
          "internalType": "uint256",
          "name": "id",
          "type": "uint256"
        },
        {
          "indexed": false,
          "internalType": "string",
          "name": "name",
          "type": "string"
        }
      ],
      "name": "FruitAdded",
      "type": "event"
    },
    {
      "anonymous": false,
      "inputs": [
        {
          "indexed": true,
          "internalType": "uint256",
          "name": "fruitId",
          "type": "uint256"
        },
        {
          "indexed": true,
          "internalType": "address",
          "name": "handler",
          "type": "address"
        },
        {
          "indexed": false,
          "internalType": "enum FruitTracking.Role",
          "name": "role",
          "type": "uint8"
        }
      ],
      "name": "HandlerAssigned",
      "type": "event"
    },
    {
      "anonymous": false,
      "inputs": [
        {
          "indexed": true,
          "internalType": "uint256",
          "name": "fruitId",
          "type": "uint256"
        }
      ],
      "name": "HandlerReset",
      "type": "event"
    },
    {
      "anonymous": false,
      "inputs": [
        {
          "indexed": false,
          "internalType": "uint256",
          "name": "id",
          "type": "uint256"
        },
        {
          "indexed": false,
          "internalType": "enum FruitTracking.Status",
          "name": "status",
          "type": "uint8"
        },
        {
          "indexed": false,
          "internalType": "address",
          "name": "executor",
          "type": "address"
        }
      ],
      "name": "StatusUpdated",
      "type": "event"
    },
    {
      "anonymous": false,
      "inputs": [
        {
          "indexed": true,
          "internalType": "address",
          "name": "account",
          "type": "address"
        },
        {
          "indexed": false,
          "internalType": "enum FruitTracking.Role",
          "name": "role",
          "type": "uint8"
        }
      ],
      "name": "UserAdded",
      "type": "event"
    },
    {
      "anonymous": false,
      "inputs": [
        {
          "indexed": true,
          "internalType": "address",
          "name": "account",
          "type": "address"
        }
      ],
      "name": "UserRemoved",
      "type": "event"
    },
    {
      "anonymous": false,
      "inputs": [
        {
          "indexed": true,
          "internalType": "address",
          "name": "account",
          "type": "address"
        },
        {
          "indexed": false,
          "internalType": "enum FruitTracking.Role",
          "name": "newRole",
          "type": "uint8"
        }
      ],
      "name": "UserRoleUpdated",
      "type": "event"
    },
    {
      "inputs": [
        {
          "internalType": "uint256",
          "name": "",
          "type": "uint256"
        }
      ],
      "name": "deliveryAssignments",
      "outputs": [
        {
          "internalType": "address",
          "name": "",
          "type": "address"
        }
      ],
      "stateMutability": "view",
      "type": "function",
      "constant": true
    },
    {
      "inputs": [],
      "name": "fruitCount",
      "outputs": [
        {
          "internalType": "uint256",
          "name": "",
          "type": "uint256"
        }
      ],
      "stateMutability": "view",
      "type": "function",
      "constant": true
    },
    {
      "inputs": [
        {
          "internalType": "uint256",
          "name": "",
          "type": "uint256"
        }
      ],
      "name": "fruits",
      "outputs": [
        {
          "internalType": "uint256",
          "name": "id",
          "type": "uint256"
        },
        {
          "internalType": "address",
          "name": "owner",
          "type": "address"
        },
        {
          "internalType": "string",
          "name": "name",
          "type": "string"
        },
        {
          "internalType": "uint256",
          "name": "price",
          "type": "uint256"
        },
        {
          "internalType": "uint256",
          "name": "quantity",
          "type": "uint256"
        },
        {
          "internalType": "string",
          "name": "origin",
          "type": "string"
        },
        {
          "internalType": "uint256",
          "name": "productionDate",
          "type": "uint256"
        },
        {
          "internalType": "uint256",
          "name": "expirationDate",
          "type": "uint256"
        },
        {
          "internalType": "string",
          "name": "destination",
          "type": "string"
        },
        {
          "internalType": "enum FruitTracking.Status",
          "name": "status",
          "type": "uint8"
        },
        {
          "internalType": "address",
          "name": "currentHandler",
          "type": "address"
        },
        {
          "internalType": "enum FruitTracking.Role",
          "name": "currentRole",
          "type": "uint8"
        }
      ],
      "stateMutability": "view",
      "type": "function",
      "constant": true
    },
    {
      "inputs": [],
      "name": "owner",
      "outputs": [
        {
          "internalType": "address",
          "name": "",
          "type": "address"
        }
      ],
      "stateMutability": "view",
      "type": "function",
      "constant": true
    },
    {
      "inputs": [
        {
          "internalType": "address",
          "name": "",
          "type": "address"
        },
        {
          "internalType": "uint256",
          "name": "",
          "type": "uint256"
        }
      ],
      "name": "ownerToFruits",
      "outputs": [
        {
          "internalType": "uint256",
          "name": "",
          "type": "uint256"
        }
      ],
      "stateMutability": "view",
      "type": "function",
      "constant": true
    },
    {
      "inputs": [
        {
          "internalType": "uint256",
          "name": "",
          "type": "uint256"
        }
      ],
      "name": "userAddresses",
      "outputs": [
        {
          "internalType": "address",
          "name": "",
          "type": "address"
        }
      ],
      "stateMutability": "view",
      "type": "function",
      "constant": true
    },
    {
      "inputs": [
        {
          "internalType": "address",
          "name": "",
          "type": "address"
        }
      ],
      "name": "users",
      "outputs": [
        {
          "internalType": "string",
          "name": "name",
          "type": "string"
        },
        {
          "internalType": "string",
          "name": "email",
          "type": "string"
        },
        {
          "internalType": "string",
          "name": "phoneNumber",
          "type": "string"
        },
        {
          "internalType": "enum FruitTracking.Role",
          "name": "role",
          "type": "uint8"
        },
        {
          "internalType": "bool",
          "name": "isActive",
          "type": "bool"
        }
      ],
      "stateMutability": "view",
      "type": "function",
      "constant": true
    },
    {
      "inputs": [
        {
          "internalType": "address",
          "name": "",
          "type": "address"
        },
        {
          "internalType": "uint256",
          "name": "",
          "type": "uint256"
        }
      ],
      "name": "warehouseToFruits",
      "outputs": [
        {
          "internalType": "uint256",
          "name": "",
          "type": "uint256"
        }
      ],
      "stateMutability": "view",
      "type": "function",
      "constant": true
    },
    {
      "inputs": [
        {
          "internalType": "address",
          "name": "_account",
          "type": "address"
        },
        {
          "internalType": "enum FruitTracking.Role",
          "name": "_role",
          "type": "uint8"
        },
        {
          "internalType": "string",
          "name": "_name",
          "type": "string"
        },
        {
          "internalType": "string",
          "name": "_email",
          "type": "string"
        },
        {
          "internalType": "string",
          "name": "_phoneNumber",
          "type": "string"
        }
      ],
      "name": "addAccount",
      "outputs": [],
      "stateMutability": "nonpayable",
      "type": "function"
    },
    {
      "inputs": [
        {
          "internalType": "address",
          "name": "_account",
          "type": "address"
        }
      ],
      "name": "removeAccount",
      "outputs": [],
      "stateMutability": "nonpayable",
      "type": "function"
    },
    {
      "inputs": [
        {
          "internalType": "address",
          "name": "_account",
          "type": "address"
        },
        {
          "internalType": "enum FruitTracking.Role",
          "name": "_newRole",
          "type": "uint8"
        }
      ],
      "name": "updateUserRole",
      "outputs": [],
      "stateMutability": "nonpayable",
      "type": "function"
    },
    {
      "inputs": [
        {
          "internalType": "address",
          "name": "_account",
          "type": "address"
        }
      ],
      "name": "getRole",
      "outputs": [
        {
          "internalType": "enum FruitTracking.Role",
          "name": "",
          "type": "uint8"
        }
      ],
      "stateMutability": "view",
      "type": "function",
      "constant": true
    },
    {
      "inputs": [
        {
          "internalType": "address",
          "name": "_account",
          "type": "address"
        }
      ],
      "name": "getUser",
      "outputs": [
        {
          "internalType": "string",
          "name": "",
          "type": "string"
        },
        {
          "internalType": "string",
          "name": "",
          "type": "string"
        },
        {
          "internalType": "string",
          "name": "",
          "type": "string"
        },
        {
          "internalType": "enum FruitTracking.Role",
          "name": "",
          "type": "uint8"
        },
        {
          "internalType": "bool",
          "name": "",
          "type": "bool"
        }
      ],
      "stateMutability": "view",
      "type": "function",
      "constant": true
    },
    {
      "inputs": [],
      "name": "getAllUsers",
      "outputs": [
        {
          "internalType": "address[]",
          "name": "",
          "type": "address[]"
        }
      ],
      "stateMutability": "view",
      "type": "function",
      "constant": true
    },
    {
      "inputs": [
        {
          "internalType": "string",
          "name": "_name",
          "type": "string"
        },
        {
          "internalType": "uint256",
          "name": "_price",
          "type": "uint256"
        },
        {
          "internalType": "uint256",
          "name": "_quantity",
          "type": "uint256"
        },
        {
          "internalType": "string",
          "name": "_origin",
          "type": "string"
        },
        {
          "internalType": "uint256",
          "name": "_productionDate",
          "type": "uint256"
        },
        {
          "internalType": "uint256",
          "name": "_expirationDate",
          "type": "uint256"
        },
        {
          "internalType": "string",
          "name": "_destination",
          "type": "string"
        }
      ],
      "name": "addFruit",
      "outputs": [],
      "stateMutability": "nonpayable",
      "type": "function"
    },
    {
      "inputs": [
        {
          "internalType": "uint256",
          "name": "_id",
          "type": "uint256"
        },
        {
          "internalType": "enum FruitTracking.Status",
          "name": "_status",
          "type": "uint8"
        }
      ],
      "name": "updateStatus",
      "outputs": [],
      "stateMutability": "nonpayable",
      "type": "function"
    },
    {
      "inputs": [
        {
          "internalType": "uint256",
          "name": "_id",
          "type": "uint256"
        }
      ],
      "name": "getFruit",
      "outputs": [
        {
          "components": [
            {
              "internalType": "uint256",
              "name": "id",
              "type": "uint256"
            },
            {
              "internalType": "address",
              "name": "owner",
              "type": "address"
            },
            {
              "internalType": "string",
              "name": "name",
              "type": "string"
            },
            {
              "internalType": "uint256",
              "name": "price",
              "type": "uint256"
            },
            {
              "internalType": "uint256",
              "name": "quantity",
              "type": "uint256"
            },
            {
              "internalType": "string",
              "name": "origin",
              "type": "string"
            },
            {
              "internalType": "uint256",
              "name": "productionDate",
              "type": "uint256"
            },
            {
              "internalType": "uint256",
              "name": "expirationDate",
              "type": "uint256"
            },
            {
              "internalType": "string",
              "name": "destination",
              "type": "string"
            },
            {
              "internalType": "enum FruitTracking.Status",
              "name": "status",
              "type": "uint8"
            },
            {
              "components": [
                {
                  "internalType": "enum FruitTracking.Status",
                  "name": "status",
                  "type": "uint8"
                },
                {
                  "internalType": "uint256",
                  "name": "timestamp",
                  "type": "uint256"
                },
                {
                  "internalType": "address",
                  "name": "executor",
                  "type": "address"
                }
              ],
              "internalType": "struct FruitTracking.UpdateHistory[]",
              "name": "history",
              "type": "tuple[]"
            },
            {
              "internalType": "address",
              "name": "currentHandler",
              "type": "address"
            },
            {
              "internalType": "enum FruitTracking.Role",
              "name": "currentRole",
              "type": "uint8"
            }
          ],
          "internalType": "struct FruitTracking.Fruit",
          "name": "",
          "type": "tuple"
        }
      ],
      "stateMutability": "view",
      "type": "function",
      "constant": true
    },
    {
      "inputs": [
        {
          "internalType": "uint256",
          "name": "_id",
          "type": "uint256"
        }
      ],
      "name": "getUpdateHistory",
      "outputs": [
        {
          "internalType": "enum FruitTracking.Status[]",
          "name": "statuses",
          "type": "uint8[]"
        },
        {
          "internalType": "uint256[]",
          "name": "timestamps",
          "type": "uint256[]"
        },
        {
          "internalType": "address[]",
          "name": "executors",
          "type": "address[]"
        }
      ],
      "stateMutability": "view",
      "type": "function",
      "constant": true
    },
    {
      "inputs": [
        {
          "internalType": "address",
          "name": "_owner",
          "type": "address"
        }
      ],
      "name": "getFruitsByOwner",
      "outputs": [
        {
          "internalType": "uint256[]",
          "name": "",
          "type": "uint256[]"
        }
      ],
      "stateMutability": "view",
      "type": "function",
      "constant": true
    },
    {
      "inputs": [
        {
          "internalType": "address",
          "name": "_warehouse",
          "type": "address"
        }
      ],
      "name": "getFruitsByWarehouse",
      "outputs": [
        {
          "internalType": "uint256[]",
          "name": "",
          "type": "uint256[]"
        }
      ],
      "stateMutability": "view",
      "type": "function",
      "constant": true
    },
    {
      "inputs": [
        {
          "internalType": "uint256",
          "name": "_id",
          "type": "uint256"
        }
      ],
      "name": "getDeliveryAssignment",
      "outputs": [
        {
          "internalType": "address",
          "name": "",
          "type": "address"
        }
      ],
      "stateMutability": "view",
      "type": "function",
      "constant": true
    }
  ],
  "bytecode": "0x60806040523480156200001157600080fd5b50600380546001600160a01b0319163317908190556040805160e081018252600560a082019081526420b236b4b760d91b60c08301528152815160208082018452600080835281840192909252835180820185528281528385015260046060840152600160808401526001600160a01b03909416815260028452919091208151805192939192620000a69284920190620001cd565b506020828101518051620000c19260018501920190620001cd565b5060408201518051620000df916002840191602090910190620001cd565b50606082015160038201805460ff191660018360048111156200011257634e487b7160e01b600052602160045260246000fd5b021790555060809190910151600391820180549115156101000261ff00199092169190911790558054600780546001810182556000919091527fa66cc928b5edb82af9bd49922954155ab7b0942694bea4ce44661d9a8736c6880180546001600160a01b0319166001600160a01b0392831617905590546040519116907f8d93da78c5d61de09788c993549916bf1b30acbd57b05c246459808bd55945ed90620001bf9060049062000273565b60405180910390a2620002d9565b828054620001db906200029c565b90600052602060002090601f016020900481019282620001ff57600085556200024a565b82601f106200021a57805160ff19168380011785556200024a565b828001600101855582156200024a579182015b828111156200024a5782518255916020019190600101906200022d565b50620002589291506200025c565b5090565b5b808211156200025857600081556001016200025d565b60208101600583106200029657634e487b7160e01b600052602160045260246000fd5b91905290565b600281046001821680620002b157607f821691505b60208210811415620002d357634e487b7160e01b600052602260045260246000fd5b50919050565b6141b580620002e96000396000f3fe608060405234801561001057600080fd5b50600436106101765760003560e01c8063a5179d93116100d8578063d925b0061161008c578063e398979411610066578063e39897941461033d578063f36195f41461035f578063f493008d1461037257610176565b8063d925b006146102f5578063dc9aa16b14610315578063e2842d791461032857610176565b8063c291fe62116100bd578063c291fe62146102a4578063c4172162146102b7578063c4740a95146102e257610176565b8063a5179d931461027e578063a87430ba1461029157610176565b8063502c9bd51161012f5780636f77926b116101145780636f77926b1461023257806376ce7fe9146102565780638da5cb5b1461027657610176565b8063502c9bd5146101ff5780635ceef5791461021f57610176565b806328efcd5e1161016057806328efcd5e146101b95780633a1b3d31146101cc57806344276733146101df57610176565b80629df2531461017b57806307ae2f22146101a4575b600080fd5b61018e6101893660046135df565b61037a565b60405161019b9190613fc1565b60405180910390f35b6101b76101b2366004613608565b6103ab565b005b61018e6101c73660046135df565b610679565b6101b76101da3660046136cb565b610695565b6101f26101ed3660046134e6565b611604565b60405161019b919061399f565b61021261020d3660046136b3565b611636565b60405161019b91906138e5565b61021261022d3660046136b3565b61166d565b6102456102403660046134e6565b611695565b60405161019b9594939291906139ad565b6102696102643660046136b3565b61192b565b60405161019b9190613e94565b610212611d30565b61021261028c3660046136b3565b611d4c565b61024561029f3660046134e6565b611d74565b6101b76102b2366004613507565b611f40565b6102ca6102c53660046136b3565b61210a565b60405161019b9c9b9a99989796959493929190613fca565b6101b76102f03660046134e6565b612342565b6103086103033660046134e6565b612499565b60405161019b919061398c565b6101b7610323366004613539565b612512565b61033061280f565b60405161019b9190613906565b61035061034b3660046136b3565b6128f5565b60405161019b93929190613919565b61030861036d3660046134e6565b612c8a565b61018e612d01565b6005602052816000526040600020818154811061039657600080fd5b90600052602060002001600091509150505481565b33600090815260026020526040902060030154610100900460ff166103eb5760405162461bcd60e51b81526004016103e290613e26565b60405180910390fd5b6001803360009081526002602052604090206003015460ff16600481111561042357634e487b7160e01b600052602160045260246000fd5b146104405760405162461bcd60e51b81526004016103e290613b68565b82841061045f5760405162461bcd60e51b81526004016103e290613d48565b6001805490600061046f8361410e565b90915550506001805460008181526020818152604090912091825591810180547fffffffffffffffffffffffff00000000000000000000000000000000000000001633179055895190916104ca9160028401918c01906132df565b50600381018890556004810187905585516104ee90600583019060208901906132df565b506006810185905560078101849055825161051290600883019060208601906132df565b5060098101805460ff19908116909155600b820180547fffffffffffffffffffffff000000000000000000000000000000000000000000169055604080516060810182526000808252426020808401919091523393830193909352600a850180546001818101835591835293909120825160039094020180549294909392849291169083600f8111156105b557634e487b7160e01b600052602160045260246000fd5b0217905550602082810151600183810191909155604093840151600290930180547fffffffffffffffffffffffff00000000000000000000000000000000000000001673ffffffffffffffffffffffffffffffffffffffff90941693909317909255336000908152600482528381208354815480860183559183529290912001555490517fad6bcdab2ea3296969bbfcf800da7284c83e2be46348e2159d66bd9b7b8a365491610666918c906140b2565b60405180910390a1505050505050505050565b6004602052816000526040600020818154811061039657600080fd5b33600090815260026020526040902060030154610100900460ff166106cc5760405162461bcd60e51b81526004016103e290613e26565b6000821180156106de57506001548211155b6106fa5760405162461bcd60e51b81526004016103e290613d11565b600082815260208181526040808320338452600290925290912060030154600982015460ff918216917f088bc571d827e5c37b222329a1c8dda606c028f40a6dd883b6f2a828092da1d99116600f81111561076557634e487b7160e01b600052602160045260246000fd5b600b8401546040516107b092918791869173ffffffffffffffffffffffffffffffffffffffff8116917401000000000000000000000000000000000000000090910460ff1690613c90565b60405180910390a160098201546107ca9060ff1684612d07565b6107e65760405162461bcd60e51b81526004016103e290613b0b565b600181600481111561080857634e487b7160e01b600052602160045260246000fd5b14156108c657600182015473ffffffffffffffffffffffffffffffffffffffff1633146108475760405162461bcd60e51b81526004016103e290613a08565b6000600983015460ff16600f81111561087057634e487b7160e01b600052602160045260246000fd5b14801561089c5750600183600f81111561089a57634e487b7160e01b600052602160045260246000fd5b145b6108b85760405162461bcd60e51b81526004016103e290613c0d565b6108c182613287565b6114a5565b60028160048111156108e857634e487b7160e01b600052602160045260246000fd5b1415611096576000600b83015474010000000000000000000000000000000000000000900460ff16600481111561092f57634e487b7160e01b600052602160045260246000fd5b148061097957506002600b83015474010000000000000000000000000000000000000000900460ff16600481111561097757634e487b7160e01b600052602160045260246000fd5b145b6109955760405162461bcd60e51b81526004016103e290613da5565b6001600983015460ff16600f8111156109be57634e487b7160e01b600052602160045260246000fd5b1480156109ea5750600283600f8111156109e857634e487b7160e01b600052602160045260246000fd5b145b15610c1357600b820180547fffffffffffffffffffffffff000000000000000000000000000000000000000016339081177fffffffffffffffffffffff00ffffffffffffffffffffffffffffffffffffffff1674020000000000000000000000000000000000000000179091556000818152600560209081526040808320805460018101825590845291909220018690555185907fd1a5d0d22c644bac34baeef93167b1211047baab367650fd5520110ab2705a8990610aac9060029061399f565b60405180910390a360098201805484919060ff1916600183600f811115610ae357634e487b7160e01b600052602160045260246000fd5b021790555081600a01604051806060016040528085600f811115610b1757634e487b7160e01b600052602160045260246000fd5b8152426020808301919091523360409092019190915282546001818101855560009485529190932082516003909402018054929390929091839160ff19169083600f811115610b7657634e487b7160e01b600052602160045260246000fd5b021790555060208201516001820155604091820151600290910180547fffffffffffffffffffffffff00000000000000000000000000000000000000001673ffffffffffffffffffffffffffffffffffffffff909216919091179055517f16ad05ce3d778c4a2ba55f55814ad9f3e606fe0c042972def94655ed8e1c31cc90610c049086908690339061407a565b60405180910390a15050611600565b600b82015473ffffffffffffffffffffffffffffffffffffffff163314610c4c5760405162461bcd60e51b81526004016103e290613aae565b6002600983015460ff16600f811115610c7557634e487b7160e01b600052602160045260246000fd5b148015610ca15750600383600f811115610c9f57634e487b7160e01b600052602160045260246000fd5b145b15610cab576108c1565b6003600983015460ff16600f811115610cd457634e487b7160e01b600052602160045260246000fd5b148015610d005750600483600f811115610cfe57634e487b7160e01b600052602160045260246000fd5b145b15610d0a576108c1565b6004600983015460ff16600f811115610d3357634e487b7160e01b600052602160045260246000fd5b148015610d5f5750600583600f811115610d5d57634e487b7160e01b600052602160045260246000fd5b145b15610d69576108c1565b6005600983015460ff16600f811115610d9257634e487b7160e01b600052602160045260246000fd5b148015610dbe5750600683600f811115610dbc57634e487b7160e01b600052602160045260246000fd5b145b15610dc8576108c1565b6005600983015460ff16600f811115610df157634e487b7160e01b600052602160045260246000fd5b148015610e1d5750600883600f811115610e1b57634e487b7160e01b600052602160045260246000fd5b145b15610e3057610e2b82613287565b6108c1565b6006600983015460ff16600f811115610e5957634e487b7160e01b600052602160045260246000fd5b148015610e855750600783600f811115610e8357634e487b7160e01b600052602160045260246000fd5b145b15610e9357610e2b82613287565b600d600983015460ff16600f811115610ebc57634e487b7160e01b600052602160045260246000fd5b148015610ee85750600e83600f811115610ee657634e487b7160e01b600052602160045260246000fd5b145b15610ef2576108c1565b600e600983015460ff16600f811115610f1b57634e487b7160e01b600052602160045260246000fd5b148015610f705750600f83600f811115610f4557634e487b7160e01b600052602160045260246000fd5b1480610f705750600883600f811115610f6e57634e487b7160e01b600052602160045260246000fd5b145b15610f7e57610e2b82613287565b600f600983015460ff16600f811115610fa757634e487b7160e01b600052602160045260246000fd5b148015610fd4575060075b83600f811115610fd257634e487b7160e01b600052602160045260246000fd5b145b15610fe257610e2b82613287565b60098201547f088bc571d827e5c37b222329a1c8dda606c028f40a6dd883b6f2a828092da1d99060ff16600f81111561102b57634e487b7160e01b600052602160045260246000fd5b600b84015460405161107692918791869173ffffffffffffffffffffffffffffffffffffffff8116917401000000000000000000000000000000000000000090910460ff1690613e14565b60405180910390a160405162461bcd60e51b81526004016103e290613e02565b60038160048111156110b857634e487b7160e01b600052602160045260246000fd5b14156113f1576000600b83015474010000000000000000000000000000000000000000900460ff1660048111156110ff57634e487b7160e01b600052602160045260246000fd5b148061114957506003600b83015474010000000000000000000000000000000000000000900460ff16600481111561114757634e487b7160e01b600052602160045260246000fd5b145b6111655760405162461bcd60e51b81526004016103e290613da5565b6008600983015460ff16600f81111561118e57634e487b7160e01b600052602160045260246000fd5b1480156111ba5750600983600f8111156111b857634e487b7160e01b600052602160045260246000fd5b145b1561127457600b820180547fffffffffffffffffffffffff0000000000000000000000000000000000000000908116339081177fffffffffffffffffffffff00ffffffffffffffffffffffffffffffffffffffff16740300000000000000000000000000000000000000001790925560008681526006602052604090819020805490921683179091555185907fd1a5d0d22c644bac34baeef93167b1211047baab367650fd5520110ab2705a8990610aac9060039061399f565b600b82015473ffffffffffffffffffffffffffffffffffffffff1633146112ad5760405162461bcd60e51b81526004016103e290613aae565b60098083015460ff16600f8111156112d557634e487b7160e01b600052602160045260246000fd5b14801561132a5750600a83600f8111156112ff57634e487b7160e01b600052602160045260246000fd5b148061132a5750600b83600f81111561132857634e487b7160e01b600052602160045260246000fd5b145b1561133857610e2b82613287565b600b600983015460ff16600f81111561136157634e487b7160e01b600052602160045260246000fd5b14801561138d5750600c83600f81111561138b57634e487b7160e01b600052602160045260246000fd5b145b156113b957336000908152600560209081526040822080546001810182559083529120018490556108c1565b600c600983015460ff16600f8111156113e257634e487b7160e01b600052602160045260246000fd5b148015610fd45750600d610fb2565b60098201547f088bc571d827e5c37b222329a1c8dda606c028f40a6dd883b6f2a828092da1d99060ff16600f81111561143a57634e487b7160e01b600052602160045260246000fd5b600b84015460405161148592918791869173ffffffffffffffffffffffffffffffffffffffff8116917401000000000000000000000000000000000000000090910460ff1690613a51565b60405180910390a160405162461bcd60e51b81526004016103e290613a3f565b60098201805484919060ff1916600183600f8111156114d457634e487b7160e01b600052602160045260246000fd5b021790555081600a01604051806060016040528085600f81111561150857634e487b7160e01b600052602160045260246000fd5b8152426020808301919091523360409092019190915282546001818101855560009485529190932082516003909402018054929390929091839160ff19169083600f81111561156757634e487b7160e01b600052602160045260246000fd5b021790555060208201516001820155604091820151600290910180547fffffffffffffffffffffffff00000000000000000000000000000000000000001673ffffffffffffffffffffffffffffffffffffffff909216919091179055517f16ad05ce3d778c4a2ba55f55814ad9f3e606fe0c042972def94655ed8e1c31cc906115f59086908690339061407a565b60405180910390a150505b5050565b73ffffffffffffffffffffffffffffffffffffffff811660009081526002602052604090206003015460ff165b919050565b6007818154811061164657600080fd5b60009182526020909120015473ffffffffffffffffffffffffffffffffffffffff16905081565b60009081526006602052604090205473ffffffffffffffffffffffffffffffffffffffff1690565b60608060606000806000600260008873ffffffffffffffffffffffffffffffffffffffff1673ffffffffffffffffffffffffffffffffffffffff1681526020019081526020016000206040518060a00160405290816000820180546116f9906140d3565b80601f0160208091040260200160405190810160405280929190818152602001828054611725906140d3565b80156117725780601f1061174757610100808354040283529160200191611772565b820191906000526020600020905b81548152906001019060200180831161175557829003601f168201915b5050505050815260200160018201805461178b906140d3565b80601f01602080910402602001604051908101604052809291908181526020018280546117b7906140d3565b80156118045780601f106117d957610100808354040283529160200191611804565b820191906000526020600020905b8154815290600101906020018083116117e757829003601f168201915b5050505050815260200160028201805461181d906140d3565b80601f0160208091040260200160405190810160405280929190818152602001828054611849906140d3565b80156118965780601f1061186b57610100808354040283529160200191611896565b820191906000526020600020905b81548152906001019060200180831161187957829003601f168201915b5050509183525050600382015460209091019060ff1660048111156118cb57634e487b7160e01b600052602160045260246000fd5b60048111156118ea57634e487b7160e01b600052602160045260246000fd5b815260039190910154610100900460ff16151560209182015281519082015160408301516060840151608090940151929b919a509850919650945092505050565b611933613363565b60008211801561194557506001548211155b6119615760405162461bcd60e51b81526004016103e290613d11565b60008281526020818152604080832081516101a08101835281548152600182015473ffffffffffffffffffffffffffffffffffffffff169381019390935260028101805491928401916119b3906140d3565b80601f01602080910402602001604051908101604052809291908181526020018280546119df906140d3565b8015611a2c5780601f10611a0157610100808354040283529160200191611a2c565b820191906000526020600020905b815481529060010190602001808311611a0f57829003601f168201915b505050505081526020016003820154815260200160048201548152602001600582018054611a59906140d3565b80601f0160208091040260200160405190810160405280929190818152602001828054611a85906140d3565b8015611ad25780601f10611aa757610100808354040283529160200191611ad2565b820191906000526020600020905b815481529060010190602001808311611ab557829003601f168201915b505050505081526020016006820154815260200160078201548152602001600882018054611aff906140d3565b80601f0160208091040260200160405190810160405280929190818152602001828054611b2b906140d3565b8015611b785780601f10611b4d57610100808354040283529160200191611b78565b820191906000526020600020905b815481529060010190602001808311611b5b57829003601f168201915b5050509183525050600982015460209091019060ff16600f811115611bad57634e487b7160e01b600052602160045260246000fd5b600f811115611bcc57634e487b7160e01b600052602160045260246000fd5b8152602001600a8201805480602002602001604051908101604052809291908181526020016000905b82821015611c9f576000848152602090206040805160608101909152600384029091018054829060ff16600f811115611c3e57634e487b7160e01b600052602160045260246000fd5b600f811115611c5d57634e487b7160e01b600052602160045260246000fd5b815260018281015460208084019190915260029093015473ffffffffffffffffffffffffffffffffffffffff1660409092019190915291835292019101611bf5565b50505090825250600b82015473ffffffffffffffffffffffffffffffffffffffff8116602083015260409091019074010000000000000000000000000000000000000000900460ff166004811115611d0757634e487b7160e01b600052602160045260246000fd5b6004811115611d2657634e487b7160e01b600052602160045260246000fd5b9052509392505050565b60035473ffffffffffffffffffffffffffffffffffffffff1681565b60066020526000908152604090205473ffffffffffffffffffffffffffffffffffffffff1681565b600260205260009081526040902080548190611d8f906140d3565b80601f0160208091040260200160405190810160405280929190818152602001828054611dbb906140d3565b8015611e085780601f10611ddd57610100808354040283529160200191611e08565b820191906000526020600020905b815481529060010190602001808311611deb57829003601f168201915b505050505090806001018054611e1d906140d3565b80601f0160208091040260200160405190810160405280929190818152602001828054611e49906140d3565b8015611e965780601f10611e6b57610100808354040283529160200191611e96565b820191906000526020600020905b815481529060010190602001808311611e7957829003601f168201915b505050505090806002018054611eab906140d3565b80601f0160208091040260200160405190810160405280929190818152602001828054611ed7906140d3565b8015611f245780601f10611ef957610100808354040283529160200191611f24565b820191906000526020600020905b815481529060010190602001808311611f0757829003601f168201915b5050506003909301549192505060ff8082169161010090041685565b60043360009081526002602052604090206003015460ff166004811115611f7757634e487b7160e01b600052602160045260246000fd5b148015611f9b575033600090815260026020526040902060030154610100900460ff165b611fb75760405162461bcd60e51b81526004016103e290613b68565b73ffffffffffffffffffffffffffffffffffffffff821660009081526002602052604081206003015460ff16600481111561200257634e487b7160e01b600052602160045260246000fd5b14156120205760405162461bcd60e51b81526004016103e290613e5d565b600081600481111561204257634e487b7160e01b600052602160045260246000fd5b14156120605760405162461bcd60e51b81526004016103e290613b9f565b73ffffffffffffffffffffffffffffffffffffffff82166000908152600260205260409020600301805482919060ff191660018360048111156120b357634e487b7160e01b600052602160045260246000fd5b02179055508173ffffffffffffffffffffffffffffffffffffffff167f8348234787debc8768e710bb8608864a37ffc99e6bde8bf5358171239895f2b3826040516120fe919061399f565b60405180910390a25050565b600060208190529081526040902080546001820154600283018054929373ffffffffffffffffffffffffffffffffffffffff90921692612149906140d3565b80601f0160208091040260200160405190810160405280929190818152602001828054612175906140d3565b80156121c25780601f10612197576101008083540402835291602001916121c2565b820191906000526020600020905b8154815290600101906020018083116121a557829003601f168201915b5050505050908060030154908060040154908060050180546121e3906140d3565b80601f016020809104026020016040519081016040528092919081815260200182805461220f906140d3565b801561225c5780601f106122315761010080835404028352916020019161225c565b820191906000526020600020905b81548152906001019060200180831161223f57829003601f168201915b50505050509080600601549080600701549080600801805461227d906140d3565b80601f01602080910402602001604051908101604052809291908181526020018280546122a9906140d3565b80156122f65780601f106122cb576101008083540402835291602001916122f6565b820191906000526020600020905b8154815290600101906020018083116122d957829003601f168201915b505050506009830154600b90930154919260ff9081169273ffffffffffffffffffffffffffffffffffffffff81169250740100000000000000000000000000000000000000009004168c565b60043360009081526002602052604090206003015460ff16600481111561237957634e487b7160e01b600052602160045260246000fd5b14801561239d575033600090815260026020526040902060030154610100900460ff165b6123b95760405162461bcd60e51b81526004016103e290613b68565b73ffffffffffffffffffffffffffffffffffffffff811660009081526002602052604081206003015460ff16600481111561240457634e487b7160e01b600052602160045260246000fd5b14156124225760405162461bcd60e51b81526004016103e290613e5d565b73ffffffffffffffffffffffffffffffffffffffff811660008181526002602052604080822060030180547fffffffffffffffffffffffffffffffffffffffffffffffffffffffffffff00ff169055517fe9dce8c992623ce791725b21e857e33248d1f190a25b5168313420eebdaae99d9190a250565b73ffffffffffffffffffffffffffffffffffffffff811660009081526004602090815260409182902080548351818402810184019094528084526060939283018282801561250657602002820191906000526020600020905b8154815260200190600101908083116124f2575b50505050509050919050565b60043360009081526002602052604090206003015460ff16600481111561254957634e487b7160e01b600052602160045260246000fd5b14801561256d575033600090815260026020526040902060030154610100900460ff165b6125895760405162461bcd60e51b81526004016103e290613b68565b60008460048111156125ab57634e487b7160e01b600052602160045260246000fd5b14156125c95760405162461bcd60e51b81526004016103e290613cda565b73ffffffffffffffffffffffffffffffffffffffff851660009081526002602052604081206003015460ff16600481111561261457634e487b7160e01b600052602160045260246000fd5b146126315760405162461bcd60e51b81526004016103e290613bd6565b6040518060a0016040528084815260200183815260200182815260200185600481111561266e57634e487b7160e01b600052602160045260246000fd5b8152600160209182015273ffffffffffffffffffffffffffffffffffffffff8716600090815260028252604090208251805191926126b1928492909101906132df565b5060208281015180516126ca92600185019201906132df565b50604082015180516126e69160028401916020909101906132df565b50606082015160038201805460ff1916600183600481111561271857634e487b7160e01b600052602160045260246000fd5b02179055506080919091015160039091018054911515610100027fffffffffffffffffffffffffffffffffffffffffffffffffffffffffffff00ff909216919091179055600780546001810182556000919091527fa66cc928b5edb82af9bd49922954155ab7b0942694bea4ce44661d9a8736c68801805473ffffffffffffffffffffffffffffffffffffffff87167fffffffffffffffffffffffff000000000000000000000000000000000000000090911681179091556040517f8d93da78c5d61de09788c993549916bf1b30acbd57b05c246459808bd55945ed9061280090879061399f565b60405180910390a25050505050565b606060043360009081526002602052604090206003015460ff16600481111561284857634e487b7160e01b600052602160045260246000fd5b14801561286c575033600090815260026020526040902060030154610100900460ff165b6128885760405162461bcd60e51b81526004016103e290613b68565b60078054806020026020016040519081016040528092919081815260200182805480156128eb57602002820191906000526020600020905b815473ffffffffffffffffffffffffffffffffffffffff1681526001909101906020018083116128c0575b5050505050905090565b606080606060008411801561290c57506001548411155b6129285760405162461bcd60e51b81526004016103e290613d11565b600084815260208181526040808320600a0180548251818502810185019093528083529192909190849084015b828210156129ff576000848152602090206040805160608101909152600384029091018054829060ff16600f81111561299e57634e487b7160e01b600052602160045260246000fd5b600f8111156129bd57634e487b7160e01b600052602160045260246000fd5b815260018281015460208084019190915260029093015473ffffffffffffffffffffffffffffffffffffffff1660409092019190915291835292019101612955565b505082519293508291505067ffffffffffffffff811115612a3057634e487b7160e01b600052604160045260246000fd5b604051908082528060200260200182016040528015612a59578160200160208202803683370190505b5094508067ffffffffffffffff811115612a8357634e487b7160e01b600052604160045260246000fd5b604051908082528060200260200182016040528015612aac578160200160208202803683370190505b5093508067ffffffffffffffff811115612ad657634e487b7160e01b600052604160045260246000fd5b604051908082528060200260200182016040528015612aff578160200160208202803683370190505b50925060005b81811015612c8057828181518110612b2d57634e487b7160e01b600052603260045260246000fd5b602002602001015160000151868281518110612b5957634e487b7160e01b600052603260045260246000fd5b6020026020010190600f811115612b8057634e487b7160e01b600052602160045260246000fd5b9081600f811115612ba157634e487b7160e01b600052602160045260246000fd5b81525050828181518110612bc557634e487b7160e01b600052603260045260246000fd5b602002602001015160200151858281518110612bf157634e487b7160e01b600052603260045260246000fd5b602002602001018181525050828181518110612c1d57634e487b7160e01b600052603260045260246000fd5b602002602001015160400151848281518110612c4957634e487b7160e01b600052603260045260246000fd5b73ffffffffffffffffffffffffffffffffffffffff9092166020928302919091019091015280612c788161410e565b915050612b05565b5050509193909250565b73ffffffffffffffffffffffffffffffffffffffff811660009081526005602090815260409182902080548351818402810184019094528084526060939283018282801561250657602002820191906000526020600020908154815260200190600101908083116124f25750505050509050919050565b60015481565b60008083600f811115612d2a57634e487b7160e01b600052602160045260246000fd5b148015612d565750600182600f811115612d5457634e487b7160e01b600052602160045260246000fd5b145b15612d6357506001613281565b600183600f811115612d8557634e487b7160e01b600052602160045260246000fd5b148015612db15750600282600f811115612daf57634e487b7160e01b600052602160045260246000fd5b145b15612dbe57506001613281565b600283600f811115612de057634e487b7160e01b600052602160045260246000fd5b148015612e0c5750600382600f811115612e0a57634e487b7160e01b600052602160045260246000fd5b145b15612e1957506001613281565b600383600f811115612e3b57634e487b7160e01b600052602160045260246000fd5b148015612e675750600482600f811115612e6557634e487b7160e01b600052602160045260246000fd5b145b15612e7457506001613281565b600483600f811115612e9657634e487b7160e01b600052602160045260246000fd5b148015612ec25750600582600f811115612ec057634e487b7160e01b600052602160045260246000fd5b145b15612ecf57506001613281565b600583600f811115612ef157634e487b7160e01b600052602160045260246000fd5b148015612f465750600682600f811115612f1b57634e487b7160e01b600052602160045260246000fd5b1480612f465750600882600f811115612f4457634e487b7160e01b600052602160045260246000fd5b145b15612f5357506001613281565b600683600f811115612f7557634e487b7160e01b600052602160045260246000fd5b148015612fa15750600782600f811115612f9f57634e487b7160e01b600052602160045260246000fd5b145b15612fae57506001613281565b600883600f811115612fd057634e487b7160e01b600052602160045260246000fd5b148015612ffc5750600982600f811115612ffa57634e487b7160e01b600052602160045260246000fd5b145b1561300957506001613281565b600983600f81111561302b57634e487b7160e01b600052602160045260246000fd5b1480156130805750600a82600f81111561305557634e487b7160e01b600052602160045260246000fd5b14806130805750600b82600f81111561307e57634e487b7160e01b600052602160045260246000fd5b145b1561308d57506001613281565b600b83600f8111156130af57634e487b7160e01b600052602160045260246000fd5b1480156130db5750600c82600f8111156130d957634e487b7160e01b600052602160045260246000fd5b145b156130e857506001613281565b600c83600f81111561310a57634e487b7160e01b600052602160045260246000fd5b1480156131365750600d82600f81111561313457634e487b7160e01b600052602160045260246000fd5b145b1561314357506001613281565b600d83600f81111561316557634e487b7160e01b600052602160045260246000fd5b1480156131915750600e82600f81111561318f57634e487b7160e01b600052602160045260246000fd5b145b1561319e57506001613281565b600e83600f8111156131c057634e487b7160e01b600052602160045260246000fd5b1480156132155750600f82600f8111156131ea57634e487b7160e01b600052602160045260246000fd5b14806132155750600882600f81111561321357634e487b7160e01b600052602160045260246000fd5b145b1561322257506001613281565b600f83600f81111561324457634e487b7160e01b600052602160045260246000fd5b1480156132705750600782600f81111561326e57634e487b7160e01b600052602160045260246000fd5b145b1561327d57506001613281565b5060005b92915050565b600b810180547fffffffffffffffffffffff00000000000000000000000000000000000000000016905580546040517ff636bc1f5006be601d0d3b057a3d131a613c01fd8de6ed34d276b24bd0618e8b90600090a250565b8280546132eb906140d3565b90600052602060002090601f01602090048101928261330d5760008555613353565b82601f1061332657805160ff1916838001178555613353565b82800160010185558215613353579182015b82811115613353578251825591602001919060010190613338565b5061335f9291506133ff565b5090565b604051806101a0016040528060008152602001600073ffffffffffffffffffffffffffffffffffffffff168152602001606081526020016000815260200160008152602001606081526020016000815260200160008152602001606081526020016000600f8111156133e557634e487b7160e01b600052602160045260246000fd5b815260606020820181905260006040830181905291015290565b5b8082111561335f5760008155600101613400565b803573ffffffffffffffffffffffffffffffffffffffff8116811461163157600080fd5b80356005811061163157600080fd5b600082601f830112613457578081fd5b813567ffffffffffffffff8082111561347257613472614169565b60405160207fffffffffffffffffffffffffffffffffffffffffffffffffffffffffffffffe0601f85011682010181811083821117156134b4576134b4614169565b6040528281528483016020018610156134cb578384fd5b82602086016020830137918201602001929092529392505050565b6000602082840312156134f7578081fd5b61350082613414565b9392505050565b60008060408385031215613519578081fd5b61352283613414565b915061353060208401613438565b90509250929050565b600080600080600060a08688031215613550578081fd5b61355986613414565b945061356760208701613438565b9350604086013567ffffffffffffffff80821115613583578283fd5b61358f89838a01613447565b945060608801359150808211156135a4578283fd5b6135b089838a01613447565b935060808801359150808211156135c5578283fd5b506135d288828901613447565b9150509295509295909350565b600080604083850312156135f1578182fd5b6135fa83613414565b946020939093013593505050565b600080600080600080600060e0888a031215613622578182fd5b873567ffffffffffffffff80821115613639578384fd5b6136458b838c01613447565b985060208a0135975060408a0135965060608a0135915080821115613668578384fd5b6136748b838c01613447565b955060808a0135945060a08a0135935060c08a0135915080821115613697578283fd5b506136a48a828b01613447565b91505092959891949750929550565b6000602082840312156136c4578081fd5b5035919050565b600080604083850312156136dd578182fd5b823591506020830135601081106136f2578182fd5b809150509250929050565b73ffffffffffffffffffffffffffffffffffffffff169052565b6000815180845260208085019450808401835b8381101561375c57815173ffffffffffffffffffffffffffffffffffffffff168752958201959082019060010161372a565b509495945050505050565b6000815180845260208085019450808401835b8381101561375c57815161378f88825161380c565b808401518885015260409081015173ffffffffffffffffffffffffffffffffffffffff16908801526060909601959082019060010161377a565b6000815180845260208085019450808401835b8381101561375c578151875295820195908201906001016137dc565b6005811061380857613808614153565b9052565b6010811061380857613808614153565b60008151808452815b8181101561384157602081850181015186830182015201613825565b818111156138525782602083870101525b50601f017fffffffffffffffffffffffffffffffffffffffffffffffffffffffffffffffe0169290920160200192915050565b601781527f4b686f6e6720636f20717579656e20636170206e686174000000000000000000602082015260400190565b601e81527f5361692074687520747520636170206e686174207472616e6720746861690000602082015260400190565b73ffffffffffffffffffffffffffffffffffffffff91909116815260200190565b6000602082526135006020830184613717565b606080825284519082018190526000906020906080840190828801845b828110156139595761394984835161380c565b9284019290840190600101613936565b5050508381038285015261396d81876137c9565b91505082810360408401526139828185613717565b9695505050505050565b60006020825261350060208301846137c9565b6020810161328182846137f8565b600060a082526139c060a083018861381c565b82810360208401526139d2818861381c565b905082810360408401526139e6818761381c565b9150506139f660608301856137f8565b82151560808301529695505050505050565b60208082526017908201527f4b686f6e672070686169206368752073616e207068616d000000000000000000604082015260600190565b60006020825261328160208301613885565b600060c08252613a6360c08301613885565b9050866020830152613a78604083018761380c565b613a8560608301866137f8565b73ffffffffffffffffffffffffffffffffffffffff8416608083015261398260a08301846137f8565b60208082526025908201527f4b686f6e672064756f63207068657020636170206e6861742073616e2070686160408201527f6d206e6179000000000000000000000000000000000000000000000000000000606082015260800190565b60208082526022908201527f43687579656e20646f69207472616e672074686169206b686f6e6720686f702060408201527f6c65000000000000000000000000000000000000000000000000000000000000606082015260800190565b6020808252600e908201527f4b686f6e6720636f20717579656e000000000000000000000000000000000000604082015260600190565b60208082526018908201527f5661692074726f206d6f69206b686f6e6720686f70206c650000000000000000604082015260600190565b60208082526014908201527f546169206b686f616e20646120746f6e20746169000000000000000000000000604082015260600190565b6020808252604d908201527f4368692064756f6320636170206e686174207475202744616e67436875616e4260408201527f6948616e67272073616e67202744616e672043686f204769616f2044656e204b60608201527f686f205068616e204c6f61692700000000000000000000000000000000000000608082015260a00190565b60c08082526018908201527f4265666f726520697356616c69645472616e736974696f6e000000000000000060e0820152602081018690526101008101613a78604083018761380c565b60208082526014908201527f5661692074726f206b686f6e6720686f70206c65000000000000000000000000604082015260600190565b60208082526018908201527f4d612073616e207068616d206b686f6e6720686f70206c650000000000000000604082015260600190565b60208082526025908201527f4e6761792073616e20787561742070686169207472756f63206e67617920686560408201527f742068616e000000000000000000000000000000000000000000000000000000606082015260800190565b60208082526029908201527f53616e207068616d2064616e672064756f63207875206c7920626f692076616960408201527f2074726f206b6861630000000000000000000000000000000000000000000000606082015260800190565b600060208252613281602083016138b5565b600060c08252613a6360c083016138b5565b60208082526011908201527f546169206b686f616e206269206b686f61000000000000000000000000000000604082015260600190565b60208082526017908201527f546169206b686f616e206b686f6e6720746f6e20746169000000000000000000604082015260600190565b600060208252825160208301526020830151613eb360408401826136fd565b5060408301516101a0806060850152613ed06101c085018361381c565b915060608501516080850152608085015160a085015260a08501517fffffffffffffffffffffffffffffffffffffffffffffffffffffffffffffffe0808685030160c0870152613f20848361381c565b935060c087015160e087015260e08701519150610100828188015280880151925050610120818786030181880152613f58858461381c565b945080880151925050610140613f708188018461380c565b80880151925050610160818786030181880152613f8d8584613767565b94508088015192505050610180613fa6818701836136fd565b8601519050613fb7858301826137f8565b5090949350505050565b90815260200190565b60006101808e835273ffffffffffffffffffffffffffffffffffffffff808f1660208501528160408501526140018285018f61381c565b91508c60608501528b608085015283820360a0850152614021828c61381c565b91508960c08501528860e0850152838203610100850152614042828961381c565b925061405261012085018861380c565b8516610140840152506140696101608301846137f8565b9d9c50505050505050505050505050565b8381526060810161408e602083018561380c565b73ffffffffffffffffffffffffffffffffffffffff83166040830152949350505050565b6000838252604060208301526140cb604083018461381c565b949350505050565b6002810460018216806140e757607f821691505b6020821081141561410857634e487b7160e01b600052602260045260246000fd5b50919050565b60007fffffffffffffffffffffffffffffffffffffffffffffffffffffffffffffffff82141561414c57634e487b7160e01b81526011600452602481fd5b5060010190565b634e487b7160e01b600052602160045260246000fd5b634e487b7160e01b600052604160045260246000fdfea26469706673582212203dcdb2aa563192d454ee704fb66cbcaf2d95b78ed29879ffcbf89c0907e02fca64736f6c63430008000033",
  "immutableReferences": {},
  "source": "// SPDX-License-Identifier: MIT\r\npragma solidity ^0.8.0;\r\n\r\ncontract FruitTracking {\r\n    // Enum nh ngha cc trng thi ca sn phm\r\n    enum Status {\r\n        DangChuanBiHang,               // 0 - ang Chun B Hng\r\n        DangChoGiaoDenKho,             // 1 - ang Ch Giao n Kho Phn Loi\r\n        DangVanChuyenDenKho,           // 2 - ang Vn Chuyn n Kho\r\n        DaDenKho,                      // 3 -  n Kho\r\n        DangPhanLoai,                  // 4 - ang Phn Loi\r\n        DangKiemTraChatLuong,          // 5 - ang Kim Tra Cht Lng\r\n        HangLoi_DangTraVeTrangTrai,    // 6 - Hng Li - ang Tr V Trang Tri\r\n        DaTraVeTrangTraiThanhCong,     // 7 -  Tr V Trang Tri Thnh Cng\r\n        DonHangChoVanChuyen,           // 8 - n Hng Ch Vn Chuyn\r\n        DangGiaoDenKhachHang,          // 9 - ang Giao n Khch Hng\r\n        GiaoHangThanhCong,             // 10 - Giao Hng Thnh Cng\r\n        GiaoHangKhongThanhCong,        // 11 - Giao Hng Khng Thnh Cng\r\n        DangTraHangVeKho,              // 12 - ang Tr Hng V Kho\r\n        DaTraVeKho,                    // 13 -  Tr Hng V Kho\r\n        DaNhanHangTraVe,               // 14 -  Nhn Hng Tr V\r\n        DangTraVeTrangTrai             // 15 - ang Tr V Trang Tri\r\n    }\r\n\r\n    // Enum nh ngha cc vai tr ngi dng\r\n    enum Role {\r\n        None,       // 0\r\n        Farmer,     // 1\r\n        Warehouse,  // 2\r\n        Delivery,   // 3\r\n        Admin       // 4\r\n    }\r\n\r\n    // Struct lu tr lch s cp nht trng thi\r\n    struct UpdateHistory {\r\n        Status status;\r\n        uint256 timestamp;\r\n        address executor;\r\n    }\r\n\r\n    // Struct lu tr thng tin sn phm\r\n    struct Fruit {\r\n        uint256 id;\r\n        address owner;\r\n        string name;\r\n        uint256 price;\r\n        uint256 quantity;\r\n        string origin;\r\n        uint256 productionDate;\r\n        uint256 expirationDate;\r\n        string destination;\r\n        Status status;\r\n        UpdateHistory[] history;\r\n        address currentHandler;\r\n        Role currentRole;\r\n    }\r\n\r\n    // Struct lu tr thng tin ngi dng\r\n    struct User {\r\n        string name;\r\n        string email;\r\n        string phoneNumber;\r\n        Role role;\r\n        bool isActive;\r\n    }\r\n\r\n    // Mapping lu tr thng tin sn phm theo ID\r\n    mapping(uint256 => Fruit) public fruits;\r\n    uint256 public fruitCount;\r\n\r\n    // Mapping lu tr thng tin ngi dng theo a ch\r\n    mapping(address => User) public users;\r\n    address public owner;\r\n\r\n    // Mapping lu tr danh sch sn phm ca tng ngi dng\r\n    mapping(address => uint256[]) public ownerToFruits;\r\n    mapping(address => uint256[]) public warehouseToFruits;\r\n    mapping(uint256 => address) public deliveryAssignments;\r\n\r\n    address[] public userAddresses;\r\n\r\n    // Cc s kin\r\n    event FruitAdded(uint256 id, string name);\r\n    event StatusUpdated(uint256 id, Status status, address executor);\r\n    event UserAdded(address indexed account, Role role);\r\n    event UserRemoved(address indexed account);\r\n    event UserRoleUpdated(address indexed account, Role newRole);\r\n    event HandlerAssigned(uint256 indexed fruitId, address indexed handler, Role role);\r\n    event HandlerReset(uint256 indexed fruitId);\r\n    event DebugInfo(\r\n        string message,\r\n        uint256 currentStatus,\r\n        Status newStatus,\r\n        Role userRole,\r\n        address currentHandler,\r\n        Role currentRole\r\n    );\r\n\r\n    // Modifiers kim tra quyn hn\r\n    modifier onlyOwner() {\r\n        require(msg.sender == owner, \"Chi chu so huu moi co quyen\");\r\n        _;\r\n    }\r\n\r\n    modifier onlyActiveUser() {\r\n        require(users[msg.sender].isActive, \"Tai khoan bi khoa\");\r\n        _;\r\n    }\r\n\r\n    modifier onlyRole(Role _role) {\r\n        require(users[msg.sender].role == _role, \"Khong co quyen\");\r\n        _;\r\n    }\r\n\r\n    modifier onlyAdmin() {\r\n        require(\r\n            users[msg.sender].role == Role.Admin && users[msg.sender].isActive,\r\n            \"Khong co quyen\"\r\n        );\r\n        _;\r\n    }\r\n\r\n    // Constructor thit lp ngi ch s hu ban u\r\n    constructor() {\r\n        owner = msg.sender;\r\n        users[owner] = User({\r\n            name: \"Admin\",\r\n            email: \"\",\r\n            phoneNumber: \"\",\r\n            role: Role.Admin,\r\n            isActive: true\r\n        });\r\n        userAddresses.push(owner);\r\n        emit UserAdded(owner, Role.Admin);\r\n    }\r\n\r\n    // Hm thm ti khon mi\r\n    function addAccount(\r\n        address _account,\r\n        Role _role,\r\n        string memory _name,\r\n        string memory _email,\r\n        string memory _phoneNumber\r\n    ) public onlyAdmin {\r\n        require(_role != Role.None, \"Vai tro khong hop le\");\r\n        require(users[_account].role == Role.None, \"Tai khoan da ton tai\");\r\n        users[_account] = User({\r\n            name: _name,\r\n            email: _email,\r\n            phoneNumber: _phoneNumber,\r\n            role: _role,\r\n            isActive: true\r\n        });\r\n        userAddresses.push(_account);\r\n        emit UserAdded(_account, _role);\r\n    }\r\n\r\n    // Hm xa ti khon (kha ti khon)\r\n    function removeAccount(address _account) public onlyAdmin {\r\n        require(users[_account].role != Role.None, \"Tai khoan khong ton tai\");\r\n        users[_account].isActive = false;\r\n        emit UserRemoved(_account);\r\n    }\r\n\r\n    // Hm cp nht vai tr ngi dng\r\n    function updateUserRole(address _account, Role _newRole) public onlyAdmin {\r\n        require(users[_account].role != Role.None, \"Tai khoan khong ton tai\");\r\n        require(_newRole != Role.None, \"Vai tro moi khong hop le\");\r\n        users[_account].role = _newRole;\r\n        emit UserRoleUpdated(_account, _newRole);\r\n    }\r\n\r\n    // Hm ly vai tr ca ti khon\r\n    function getRole(address _account) public view returns (Role) {\r\n        return users[_account].role;\r\n    }\r\n\r\n    // Hm ly thng tin ngi dng\r\n    function getUser(\r\n        address _account\r\n    )\r\n        public\r\n        view\r\n        returns (string memory, string memory, string memory, Role, bool)\r\n    {\r\n        User memory user = users[_account];\r\n        return (\r\n            user.name,\r\n            user.email,\r\n            user.phoneNumber,\r\n            user.role,\r\n            user.isActive\r\n        );\r\n    }\r\n\r\n    // Hm ly danh sch tt c ngi dng (ch Admin)\r\n    function getAllUsers() public view onlyAdmin returns (address[] memory) {\r\n        return userAddresses;\r\n    }\r\n\r\n    // Hm thm sn phm mi (ch Farmer)\r\n    function addFruit(\r\n        string memory _name,\r\n        uint256 _price,\r\n        uint256 _quantity,\r\n        string memory _origin,\r\n        uint256 _productionDate,\r\n        uint256 _expirationDate,\r\n        string memory _destination\r\n    ) public onlyActiveUser onlyRole(Role.Farmer) {\r\n        require(_productionDate < _expirationDate, \"Ngay san xuat phai truoc ngay het han\");\r\n\r\n        fruitCount++;\r\n        Fruit storage newFruit = fruits[fruitCount];\r\n        newFruit.id = fruitCount;\r\n        newFruit.owner = msg.sender;\r\n        newFruit.name = _name;\r\n        newFruit.price = _price;\r\n        newFruit.quantity = _quantity;\r\n        newFruit.origin = _origin;\r\n        newFruit.productionDate = _productionDate;\r\n        newFruit.expirationDate = _expirationDate;\r\n        newFruit.destination = _destination;\r\n        newFruit.status = Status.DangChuanBiHang;\r\n        newFruit.currentHandler = address(0);\r\n        newFruit.currentRole = Role.None;\r\n        newFruit.history.push(\r\n            UpdateHistory({\r\n                status: Status.DangChuanBiHang,\r\n                timestamp: block.timestamp,\r\n                executor: msg.sender\r\n            })\r\n        );\r\n\r\n        ownerToFruits[msg.sender].push(fruitCount);\r\n\r\n        emit FruitAdded(fruitCount, _name);\r\n    }\r\n\r\n    // Hm cp nht trng thi sn phm\r\n   function updateStatus(uint256 _id, Status _status) public onlyActiveUser {\r\n    require(_id > 0 && _id <= fruitCount, \"Ma san pham khong hop le\");\r\n\r\n    Fruit storage fruit = fruits[_id];\r\n    Role userRole = users[msg.sender].role;\r\n\r\n    // Pht ra s kin DebugInfo trc khi kim tra chuyn i trng thi\r\n    emit DebugInfo(\r\n        \"Before isValidTransition\",\r\n        uint256(fruit.status),\r\n        _status,\r\n        userRole,\r\n        fruit.currentHandler,\r\n        fruit.currentRole\r\n    );\r\n\r\n    require(\r\n        isValidTransition(fruit.status, _status),\r\n        \"Chuyen doi trang thai khong hop le\"\r\n    );\r\n\r\n    if (userRole == Role.Farmer) {\r\n        // Farmer c th chuyn t 0 sang 1\r\n        require(fruit.owner == msg.sender, \"Khong phai chu san pham\");\r\n        require(\r\n            fruit.status == Status.DangChuanBiHang &&\r\n                _status == Status.DangChoGiaoDenKho,\r\n            \"Chi duoc cap nhat tu 'DangChuanBiHang' sang 'Dang Cho Giao Den Kho Phan Loai'\"\r\n        );\r\n        // Thit lp currentHandler v currentRole\r\n        _resetHandler(fruit);\r\n    } else if (userRole == Role.Warehouse) {\r\n        require(\r\n            fruit.currentRole == Role.None || fruit.currentRole == Role.Warehouse,\r\n            \"San pham dang duoc xu ly boi vai tro khac\"\r\n        );\r\n\r\n        if (\r\n            fruit.status == Status.DangChoGiaoDenKho &&\r\n            _status == Status.DangVanChuyenDenKho\r\n        ) {\r\n            fruit.currentHandler = msg.sender;\r\n            fruit.currentRole = Role.Warehouse;\r\n            warehouseToFruits[msg.sender].push(_id);\r\n            emit HandlerAssigned(_id, msg.sender, Role.Warehouse);\r\n\r\n            // Cp nht trng thi ngay lp tc v ghi li lch s\r\n            fruit.status = _status;\r\n            fruit.history.push(\r\n                UpdateHistory({\r\n                    status: _status,\r\n                    timestamp: block.timestamp,\r\n                    executor: msg.sender\r\n                })\r\n            );\r\n            emit StatusUpdated(_id, _status, msg.sender);\r\n\r\n            // Thot khi hm sau khi x l chuyn i hp l\r\n            return;\r\n        } else {\r\n            require(\r\n                fruit.currentHandler == msg.sender,\r\n                \"Khong duoc phep cap nhat san pham nay\"\r\n            );\r\n        }\r\n\r\n        // X l cc chuyn i trng thi khc\r\n        if (\r\n            fruit.status == Status.DangVanChuyenDenKho &&\r\n            _status == Status.DaDenKho\r\n        ) {\r\n            //  n kho\r\n        } else if (\r\n            fruit.status == Status.DaDenKho &&\r\n            _status == Status.DangPhanLoai\r\n        ) {\r\n            // ang phn loi\r\n        } else if (\r\n            fruit.status == Status.DangPhanLoai &&\r\n            _status == Status.DangKiemTraChatLuong\r\n        ) {\r\n            // ang kim tra cht lng\r\n        } else if (\r\n            fruit.status == Status.DangKiemTraChatLuong &&\r\n            _status == Status.HangLoi_DangTraVeTrangTrai\r\n        ) {\r\n            // Hng li - ang tr v trang tri\r\n            // Khng reset handler  y  gi vai tr Warehouse tip tc x l\r\n        } else if (\r\n            fruit.status == Status.DangKiemTraChatLuong &&\r\n            _status == Status.DonHangChoVanChuyen\r\n        ) {\r\n            // n hng ch vn chuyn\r\n            _resetHandler(fruit);\r\n        } else if (\r\n            fruit.status == Status.HangLoi_DangTraVeTrangTrai &&\r\n            _status == Status.DaTraVeTrangTraiThanhCong\r\n        ) {\r\n            //  tr v trang tri thnh cng\r\n            _resetHandler(fruit);\r\n        } else if (\r\n            fruit.status == Status.DaTraVeKho &&\r\n            _status == Status.DaNhanHangTraVe\r\n        ) {\r\n            //  tr v kho v  nhn hng tr v\r\n        } else if (\r\n            fruit.status == Status.DaNhanHangTraVe &&\r\n            (_status == Status.DangTraVeTrangTrai ||\r\n                _status == Status.DonHangChoVanChuyen)\r\n        ) {\r\n            // ang tr v trang tri hoc n hng sn sng vn chuyn\r\n            _resetHandler(fruit);\r\n        } else if (\r\n            fruit.status == Status.DangTraVeTrangTrai &&\r\n            _status == Status.DaTraVeTrangTraiThanhCong\r\n        ) {\r\n            //  tr v trang tri thnh cng\r\n            _resetHandler(fruit);\r\n        } else {\r\n            // Pht ra s kin DebugInfo khi sai th t cp nht trng thi\r\n            emit DebugInfo(\r\n                \"Sai thu tu cap nhat trang thai\",\r\n                uint256(fruit.status),\r\n                _status,\r\n                userRole,\r\n                fruit.currentHandler,\r\n                fruit.currentRole\r\n            );\r\n            revert(\"Sai thu tu cap nhat trang thai\");\r\n        }\r\n    } else if (userRole == Role.Delivery) {\r\n        require(\r\n            fruit.currentRole == Role.None || fruit.currentRole == Role.Delivery,\r\n            \"San pham dang duoc xu ly boi vai tro khac\"\r\n        );\r\n\r\n        if (\r\n            fruit.status == Status.DonHangChoVanChuyen &&\r\n            _status == Status.DangGiaoDenKhachHang\r\n        ) {\r\n            fruit.currentHandler = msg.sender;\r\n            fruit.currentRole = Role.Delivery;\r\n            deliveryAssignments[_id] = msg.sender;\r\n            emit HandlerAssigned(_id, msg.sender, Role.Delivery);\r\n\r\n            // Cp nht trng thi ngay lp tc v ghi li lch s\r\n            fruit.status = _status;\r\n            fruit.history.push(\r\n                UpdateHistory({\r\n                    status: _status,\r\n                    timestamp: block.timestamp,\r\n                    executor: msg.sender\r\n                })\r\n            );\r\n            emit StatusUpdated(_id, _status, msg.sender);\r\n\r\n            // Thot khi hm sau khi x l chuyn i hp l\r\n            return;\r\n        } else {\r\n            require(\r\n                fruit.currentHandler == msg.sender,\r\n                \"Khong duoc phep cap nhat san pham nay\"\r\n            );\r\n        }\r\n\r\n        // X l cc chuyn i trng thi khc\r\n        if (\r\n            fruit.status == Status.DangGiaoDenKhachHang &&\r\n            (_status == Status.GiaoHangThanhCong ||\r\n                _status == Status.GiaoHangKhongThanhCong)\r\n        ) {\r\n            // Giao hng thnh cng hoc khng thnh cng\r\n            _resetHandler(fruit);\r\n        } else if (\r\n            fruit.status == Status.GiaoHangKhongThanhCong &&\r\n            _status == Status.DangTraHangVeKho\r\n        ) {\r\n                warehouseToFruits[msg.sender].push(_id);\r\n        } else if (\r\n            fruit.status == Status.DangTraHangVeKho &&\r\n            _status == Status.DaTraVeKho\r\n        ) {\r\n            //  tr v kho\r\n            _resetHandler(fruit);\r\n        } else {\r\n            // Pht ra s kin DebugInfo khi sai th t cp nht trng thi\r\n            emit DebugInfo(\r\n                \"Sai thu tu cap nhat trang thai\",\r\n                uint256(fruit.status),\r\n                _status,\r\n                userRole,\r\n                fruit.currentHandler,\r\n                fruit.currentRole\r\n            );\r\n            revert(\"Sai thu tu cap nhat trang thai\");\r\n        }\r\n    } else {\r\n        // Pht ra s kin DebugInfo khi khng c quyn cp nht\r\n        emit DebugInfo(\r\n            \"Khong co quyen cap nhat\",\r\n            uint256(fruit.status),\r\n            _status,\r\n            userRole,\r\n            fruit.currentHandler,\r\n            fruit.currentRole\r\n        );\r\n        revert(\"Khong co quyen cap nhat\");\r\n    }\r\n\r\n    // Cp nht trng thi sn phm\r\n    fruit.status = _status;\r\n    // Ghi li lch s cp nht\r\n    fruit.history.push(\r\n        UpdateHistory({\r\n            status: _status,\r\n            timestamp: block.timestamp,\r\n            executor: msg.sender\r\n        })\r\n    );\r\n    emit StatusUpdated(_id, _status, msg.sender);\r\n}\r\n\r\n\r\n    // Hm reset handler\r\nfunction _resetHandler(Fruit storage fruit) internal {\r\n    fruit.currentHandler = address(0);\r\n    fruit.currentRole = Role.None;\r\n    emit HandlerReset(fruit.id);\r\n}\r\n\r\n    // Hm kim tra chuyn i trng thi hp l\r\n    function isValidTransition(\r\n        Status _current,\r\n        Status _new\r\n    ) internal pure returns (bool) {\r\n        if (\r\n            _current == Status.DangChuanBiHang &&\r\n            _new == Status.DangChoGiaoDenKho\r\n        ) return true;\r\n        if (\r\n            _current == Status.DangChoGiaoDenKho &&\r\n            _new == Status.DangVanChuyenDenKho\r\n        ) return true;\r\n        if (_current == Status.DangVanChuyenDenKho && _new == Status.DaDenKho)\r\n            return true;\r\n        if (_current == Status.DaDenKho && _new == Status.DangPhanLoai)\r\n            return true;\r\n        if (\r\n            _current == Status.DangPhanLoai &&\r\n            _new == Status.DangKiemTraChatLuong\r\n        ) return true;\r\n        if (\r\n            _current == Status.DangKiemTraChatLuong &&\r\n            (_new == Status.HangLoi_DangTraVeTrangTrai ||\r\n                _new == Status.DonHangChoVanChuyen)\r\n        ) return true;\r\n        if (\r\n            _current == Status.HangLoi_DangTraVeTrangTrai &&\r\n            _new == Status.DaTraVeTrangTraiThanhCong\r\n        ) return true;\r\n        if (\r\n            _current == Status.DonHangChoVanChuyen &&\r\n            _new == Status.DangGiaoDenKhachHang\r\n        ) return true;\r\n        if (\r\n            _current == Status.DangGiaoDenKhachHang &&\r\n            (_new == Status.GiaoHangThanhCong ||\r\n                _new == Status.GiaoHangKhongThanhCong)\r\n        ) return true;\r\n        if (\r\n            _current == Status.GiaoHangKhongThanhCong &&\r\n            _new == Status.DangTraHangVeKho\r\n        ) return true;\r\n        if (_current == Status.DangTraHangVeKho && _new == Status.DaTraVeKho)\r\n            return true;\r\n        if (_current == Status.DaTraVeKho && _new == Status.DaNhanHangTraVe)\r\n            return true;\r\n        if (\r\n            _current == Status.DaNhanHangTraVe &&\r\n            (_new == Status.DangTraVeTrangTrai ||\r\n                _new == Status.DonHangChoVanChuyen)\r\n        ) return true;\r\n        if (\r\n            _current == Status.DangTraVeTrangTrai &&\r\n            _new == Status.DaTraVeTrangTraiThanhCong\r\n        ) return true;\r\n        return false;\r\n    }\r\n\r\n    // Hm ly thng tin sn phm theo ID\r\n    function getFruit(uint256 _id) public view returns (Fruit memory) {\r\n        require(_id > 0 && _id <= fruitCount, \"Ma san pham khong hop le\");\r\n        Fruit memory fruit = fruits[_id];\r\n        return fruit;\r\n    }\r\n\r\n    // Hm ly lch s cp nht trng thi ca sn phm\r\n    function getUpdateHistory(\r\n        uint256 _id\r\n    )\r\n        public\r\n        view\r\n        returns (\r\n            Status[] memory statuses,\r\n            uint256[] memory timestamps,\r\n            address[] memory executors\r\n        )\r\n    {\r\n        require(_id > 0 && _id <= fruitCount, \"Ma san pham khong hop le\");\r\n        UpdateHistory[] memory history = fruits[_id].history;\r\n        uint256 length = history.length;\r\n        statuses = new Status[](length);\r\n        timestamps = new uint256[](length);\r\n        executors = new address[](length);\r\n        for (uint256 i = 0; i < length; i++) {\r\n            statuses[i] = history[i].status;\r\n            timestamps[i] = history[i].timestamp;\r\n            executors[i] = history[i].executor;\r\n        }\r\n    }\r\n\r\n    // Hm ly danh sch sn phm ca ch nng tri\r\n    function getFruitsByOwner(\r\n        address _owner\r\n    ) public view returns (uint256[] memory) {\r\n        return ownerToFruits[_owner];\r\n    }\r\n    \r\n    // Hm ly danh sch sn phm ca kho phn loi\r\n    function getFruitsByWarehouse(\r\n        address _warehouse\r\n    ) public view returns (uint256[] memory) {\r\n        return warehouseToFruits[_warehouse];\r\n    }\r\n\r\n    // Hm ly ngi giao hng c gn cho sn phm\r\n    function getDeliveryAssignment(uint256 _id) public view returns (address) {\r\n        return deliveryAssignments[_id];\r\n    }\r\n}\r\n",
  "sourcePath": "C:\\Users\\nguye\\OneDrive\\Desktop\\fruit-tracker\\contracts\\FruitTracking.sol",
  "compiler": {
    "name": "solc",
    "version": "0.8.0+commit.c7dfd78e.Emscripten.clang"
  },
  "schemaVersion": "3.4.16",
  "updatedAt": "2024-12-03T16:19:07.037Z",
  "networkType": "ethereum",
  "devdoc": {
    "kind": "dev",
    "methods": {},
    "version": 1
  },
  "userdoc": {
    "kind": "user",
    "methods": {},
    "version": 1
  }
}